{
    "contractName": "CASmartContract",
    "abi": [
        {
            "anonymous": false,
            "inputs": [
                {
                    "indexed": false,
                    "internalType": "uint256",
                    "name": "count",
                    "type": "uint256"
                }
            ],
            "name": "Count",
            "type": "event"
        },
        {
            "anonymous": false,
            "inputs": [
                {
                    "indexed": false,
                    "internalType": "address",
                    "name": "sensor",
                    "type": "address"
                },
                {
                    "indexed": false,
                    "internalType": "address",
                    "name": "toSensor",
                    "type": "address"
                },
                {
                    "indexed": false,
                    "internalType": "string",
                    "name": "status",
                    "type": "string"
                },
                {
                    "indexed": false,
                    "internalType": "bool",
                    "name": "access",
                    "type": "bool"
                }
            ],
            "name": "grentAccess",
            "type": "event"
        },
        {
            "anonymous": false,
            "inputs": [
                {
                    "indexed": false,
                    "internalType": "string",
                    "name": "errorMessage",
                    "type": "string"
                }
            ],
            "name": "grentAccess1",
            "type": "event"
        },
        {
            "anonymous": false,
            "inputs": [
                {
                    "indexed": false,
                    "internalType": "address",
                    "name": "sensorOwner",
                    "type": "address"
                },
                {
                    "indexed": false,
                    "internalType": "address",
                    "name": "sensor",
                    "type": "address"
                },
                {
                    "indexed": false,
                    "internalType": "string",
                    "name": "name",
                    "type": "string"
                }
            ],
            "name": "initSensor",
            "type": "event"
        },
        {
            "inputs": [],
            "name": "GetSensorCount",
            "outputs": [
                {
                    "internalType": "uint256",
                    "name": "numberOfSensors",
                    "type": "uint256"
                }
            ],
            "stateMutability": "nonpayable",
            "type": "function"
        },
        {
            "inputs": [
                {
                    "internalType": "uint256",
                    "name": "sensorNumber",
                    "type": "uint256"
                }
            ],
            "name": "GetSensorname",
            "outputs": [
                {
                    "internalType": "string",
                    "name": "name",
                    "type": "string"
                },
                {
                    "internalType": "address",
                    "name": "key",
                    "type": "address"
                }
            ],
            "stateMutability": "view",
            "type": "function"
        },
        {
            "inputs": [
                {
                    "internalType": "address",
                    "name": "sensor",
                    "type": "address"
                },
                {
                    "internalType": "address",
                    "name": "toSensor",
                    "type": "address"
                },
                {
                    "internalType": "bool",
                    "name": "access",
                    "type": "bool"
                }
            ],
            "name": "GrentAccess",
            "outputs": [
                {
                    "internalType": "bool",
                    "name": "success",
                    "type": "bool"
                }
            ],
            "stateMutability": "nonpayable",
            "type": "function"
        },
        {
            "inputs": [
                {
                    "internalType": "address",
                    "name": "sensor",
                    "type": "address"
                },
                {
                    "internalType": "string",
                    "name": "sensorName",
                    "type": "string"
                }
            ],
            "name": "InitSensor",
            "outputs": [
                {
                    "internalType": "bool",
                    "name": "success",
                    "type": "bool"
                }
            ],
            "stateMutability": "nonpayable",
            "type": "function"
        },
        {
            "inputs": [
                {
                    "internalType": "address",
                    "name": "from",
                    "type": "address"
                },
                {
                    "internalType": "address",
                    "name": "to",
                    "type": "address"
                }
            ],
            "name": "IsAccessAllow",
            "outputs": [
                {
                    "internalType": "bool",
                    "name": "access",
                    "type": "bool"
                }
            ],
            "stateMutability": "view",
            "type": "function"
        }
    ],
    "bytecode": "608060405234801561001057600080fd5b50610a1c806100206000396000f3fe608060405234801561001057600080fd5b50600436106100575760003560e01c806357276f0e1461005c5780637241279c146100845780637743bd171461009a57806390fdba80146100bb578063fc60fd70146100fb575b600080fd5b61006f61006a36600461074e565b61010e565b60405190151581526020015b60405180910390f35b61008c6102a9565b60405190815260200161007b565b6100ad6100a836600461080b565b6102e9565b60405161007b9291906108e7565b61006f6100c93660046106d2565b6001600160a01b0391821660009081526001602090815260408083209390941682526003909201909152205460ff1690565b61006f610109366004610704565b610434565b6001600160a01b038216600090815260016020526040812054600160a01b900460ff1661022b576001600160a01b038316600090815260016020818152604090922080546001600160a81b0319163317600160a01b178155845161017a9391909201919085019061061d565b506001600160a01b038316600081815260016020819052604091829020600280820180546001600160a01b0319908116871790915581548085019092557f405787fa12a823e0f2b7631cc41b3ba8828b3321ca811111fa75cd3aa3bb5ace909101805490911690941790935590517f1304cafa734a4292f7d120fb43b8220c3f619be6f1dd1263698fa075b2c8ae649261021b923392889290910190610823565b60405180910390a15060016102a3565b6001600160a01b03838116600081815260016020908152604091829020548251941684528301919091526060828201819052600890830152672430b9a7bbb732b960c11b6080830152517f1304cafa734a4292f7d120fb43b8220c3f619be6f1dd1263698fa075b2c8ae649181900360a00190a15060005b92915050565b6002546040519081526000907face32e4392fafee7f8245a5ae6a32722dc74442d018c52e460835648cbeeeba19060200160405180910390a15060025490565b6060600060018160026102fc8387610972565b8154811061031a57634e487b7160e01b600052603260045260246000fd5b60009182526020808320909101546001600160a01b03168352820192909252604001812060019081019160026103508388610972565b8154811061036e57634e487b7160e01b600052603260045260246000fd5b60009182526020808320909101546001600160a01b039081168452908301939093526040909101902060020154825491169082906103ab90610995565b80601f01602080910402602001604051908101604052809291908181526020018280546103d790610995565b80156104245780601f106103f957610100808354040283529160200191610424565b820191906000526020600020905b81548152906001019060200180831161040757829003601f168201915b5050505050915091509150915091565b6001600160a01b038316600090815260016020526040812054600160a01b900460ff166104b5577f19f9d86af6ec532a9f1e3751c730ee0977623b92153acf100cfcd77153c0b7cb6040516104a59060208082526008908201526727379037bbb732b960c11b604082015260600190565b60405180910390a1506000610616565b6001600160a01b0384811660009081526001602052604090205416331461053e577f19f9d86af6ec532a9f1e3751c730ee0977623b92153acf100cfcd77153c0b7cb6040516105359060208082526017908201527f6d73672e73656e646572206973206e6f74206f776e6572000000000000000000604082015260600190565b60405180910390a15b6001600160a01b0384811660008181526001602090815260408083209488168084526003909501825291829020805460ff19168715159081179091558251938452908301939093526080908201819052600790820152667375636365737360c81b60a082015260ff909116151560608201527f7b82055e4bf2b414d71e36876b3d5bb29802347075626ab62775e3972389416b9060c00160405180910390a17f19f9d86af6ec532a9f1e3751c730ee0977623b92153acf100cfcd77153c0b7cb60405161060a9061094b565b60405180910390a15060015b9392505050565b82805461062990610995565b90600052602060002090601f01602090048101928261064b5760008555610691565b82601f1061066457805160ff1916838001178555610691565b82800160010185558215610691579182015b82811115610691578251825591602001919060010190610676565b5061069d9291506106a1565b5090565b5b8082111561069d57600081556001016106a2565b80356001600160a01b03811681146106cd57600080fd5b919050565b600080604083850312156106e4578182fd5b6106ed836106b6565b91506106fb602084016106b6565b90509250929050565b600080600060608486031215610718578081fd5b610721846106b6565b925061072f602085016106b6565b915060408401358015158114610743578182fd5b809150509250925092565b60008060408385031215610760578182fd5b610769836106b6565b9150602083013567ffffffffffffffff80821115610785578283fd5b818501915085601f830112610798578283fd5b8135818111156107aa576107aa6109d0565b604051601f8201601f19908116603f011681019083821181831017156107d2576107d26109d0565b816040528281528860208487010111156107ea578586fd5b82602086016020830137856020848301015280955050505050509250929050565b60006020828403121561081c578081fd5b5035919050565b6001600160a01b03848116825283166020808301919091526060604083015282546000918291600181811c908281168061085e57607f831692505b84831081141561087c57634e487b7160e01b87526022600452602487fd5b606088018390526080880181801561089b57600181146108ac576108d6565b60ff198616825286820197506108d6565b60008b815260209020895b868110156108d0578154848201529085019088016108b7565b83019850505b50959b9a5050505050505050505050565b6000604082528351806040840152815b8181101561091457602081870181015160608684010152016108f7565b818111156109255782606083860101525b506001600160a01b0393909316602083015250601f91909101601f191601606001919050565b6000602082526102a36020830160078152667375636365737360c81b602082015260400190565b60008282101561099057634e487b7160e01b81526011600452602481fd5b500390565b600181811c908216806109a957607f821691505b602082108114156109ca57634e487b7160e01b600052602260045260246000fd5b50919050565b634e487b7160e01b600052604160045260246000fdfea26469706673582212207ff23a9fc62b6b7d570694daf43b8c467d4a3e1c2e422ad38d3c5e417a5c866164736f6c63430008030033",
    "sourcePath": "c:/Myproject/CaNew/CASmartContract/CASmartContract.sol",
    "compiler": {
        "name": "solc",
        "version": "0.8.3+commit.8d00100c"
    },
    "functionHashes": {
        "GetSensorCount()": "7241279c",
        "GetSensorname(uint256)": "7743bd17",
        "GrentAccess(address,address,bool)": "fc60fd70",
        "InitSensor(address,string)": "57276f0e",
        "IsAccessAllow(address,address)": "90fdba80"
    },
    "gasEstimates": {
        "creation": {
            "codeDepositCost": "517600",
            "executionCost": "549",
            "totalCost": "518149"
        },
        "external": {
            "GetSensorCount()": "2869",
            "GetSensorname(uint256)": "infinite",
            "GrentAccess(address,address,bool)": "infinite",
            "InitSensor(address,string)": "infinite",
            "IsAccessAllow(address,address)": "infinite"
        }
    }
}