{
    "contractName": "CASmartContract",
    "abi": [
        {
            "inputs": [
                {
                    "internalType": "address",
                    "name": "sensor",
                    "type": "address"
                },
                {
                    "internalType": "address",
                    "name": "toSensor",
                    "type": "address"
                },
                {
                    "internalType": "bool",
                    "name": "access",
                    "type": "bool"
                }
            ],
            "name": "GrentAccess",
            "outputs": [
                {
                    "internalType": "bool",
                    "name": "success",
                    "type": "bool"
                }
            ],
            "stateMutability": "nonpayable",
            "type": "function"
        },
        {
            "inputs": [
                {
                    "internalType": "address",
                    "name": "sensor",
                    "type": "address"
                }
            ],
            "name": "IsAccessAllow",
            "outputs": [
                {
                    "internalType": "bool",
                    "name": "access",
                    "type": "bool"
                }
            ],
            "stateMutability": "view",
            "type": "function"
        },
        {
            "inputs": [
                {
                    "internalType": "address",
                    "name": "sensor",
                    "type": "address"
                },
                {
                    "internalType": "string",
                    "name": "sensorName",
                    "type": "string"
                }
            ],
            "name": "initSesor",
            "outputs": [
                {
                    "internalType": "bool",
                    "name": "success",
                    "type": "bool"
                }
            ],
            "stateMutability": "nonpayable",
            "type": "function"
        }
    ],
    "bytecode": "608060405234801561001057600080fd5b5061042b806100206000396000f3fe608060405234801561001057600080fd5b50600436106100415760003560e01c8063af89f65114610046578063d0106bc11461006d578063fc60fd7014610080575b600080fd5b610059610054366004610283565b610093565b604051901515815260200160405180910390f35b61005961007b3660046102e7565b6100c1565b61005961008e36600461029d565b610140565b336000908152602081815260408083206001600160a01b038516845260030190915290205460ff165b919050565b6001600160a01b038216600090815260208190526040812054600160a01b900460ff16610136576001600160a01b03831660009081526020818152604090912080546001600160a81b0319163317600160a01b178155835161012c92600192909201918501906101d3565b506001905061013a565b5060005b92915050565b6001600160a01b038316600090815260208190526040812054600160a01b900460ff16801561018857506001600160a01b038481166000908152602081905260409020541633145b156101c857506001600160a01b0383811660009081526020818152604080832093861683526003909301905220805460ff191682151517905560016101cc565b5060005b9392505050565b8280546101df906103a4565b90600052602060002090601f0160209004810192826102015760008555610247565b82601f1061021a57805160ff1916838001178555610247565b82800160010185558215610247579182015b8281111561024757825182559160200191906001019061022c565b50610253929150610257565b5090565b5b808211156102535760008155600101610258565b80356001600160a01b03811681146100bc57600080fd5b600060208284031215610294578081fd5b6101cc8261026c565b6000806000606084860312156102b1578182fd5b6102ba8461026c565b92506102c86020850161026c565b9150604084013580151581146102dc578182fd5b809150509250925092565b600080604083850312156102f9578182fd5b6103028361026c565b9150602083013567ffffffffffffffff8082111561031e578283fd5b818501915085601f830112610331578283fd5b813581811115610343576103436103df565b604051601f8201601f19908116603f0116810190838211818310171561036b5761036b6103df565b81604052828152886020848701011115610383578586fd5b82602086016020830137856020848301015280955050505050509250929050565b600181811c908216806103b857607f821691505b602082108114156103d957634e487b7160e01b600052602260045260246000fd5b50919050565b634e487b7160e01b600052604160045260246000fdfea26469706673582212200b8dc3a5da9a4890ea29169c1d8304adf125dbf7316be622f313679237894b7164736f6c63430008030033",
    "sourcePath": "c:/Myproject/CaNew/NewFolder/CASmartContract.sol",
    "compiler": {
        "name": "solc",
        "version": "0.8.3+commit.8d00100c"
    },
    "functionHashes": {
        "GrentAccess(address,address,bool)": "fc60fd70",
        "IsAccessAllow(address)": "af89f651",
        "initSesor(address,string)": "d0106bc1"
    },
    "gasEstimates": {
        "creation": {
            "codeDepositCost": "213400",
            "executionCost": "257",
            "totalCost": "213657"
        },
        "external": {
            "GrentAccess(address,address,bool)": "infinite",
            "IsAccessAllow(address)": "infinite",
            "initSesor(address,string)": "infinite"
        }
    }
}